:100000000C945D000C9485000C9485000C94850084
:100010000C9485000C9485000C9485000C9485004C
:100020000C9485000C9485000C9485000C94F202CD
:100030000C9485000C9485000C9485000C9485002C
:100040000C9428040C9485000C94EE030C94B303D8
:100050000C9485000C9485000C9485000C9485000C
:100060000C9485000C94850000000007000201003C
:100070000003040600000000000000000000000073
:10008000250028002B0000000000240027002A0083
:10009000040404040404040402020202020203032E
:1000A0000303030301020408102040800102040836
:1000B0001020010204081020720411241FBECFEF8B
:1000C000D8E0DEBFCDBF11E0A0E0B1E0E2ECFDE0A2
:1000D00002C005900D92A031B107D9F721E0A0E14F
:1000E000B1E001C01D92A03FB207E1F710E0CDE5FD
:1000F000D0E004C02197FE010E94D906CC35D1077B
:10010000C9F70E94E3040C9467060C940000CF9298
:10011000DF92EF92FF92DC01A03282E0B8070CF090
:100120003EC0B7FD06C0A53BB1052CF0A4EBB0E086
:1001300002C0A0E0B0E08091EE0128E830E0690163
:10014000C81AD10887FDD394CC0CDD1CCC0CDD1C67
:100150000D2C000CEE08FF088091EF0128E532E03D
:10016000281B310987FD3395220F331F220F331FC0
:10017000A901330F660B770B9A01AB012C193D09CE
:100180004E095F090E94940624EB30E040E050E005
:100190000E946A06C20ED31EE41EF51ED60190917F
:1001A000ED019C3098F58091EE0148E850E0481B45
:1001B000510987FD5395440F551F440F551FA41730
:1001C000B5078CF08091EF0128E532E0281B31095A
:1001D00087FD3395220F331F220F331FAD012A17DE
:1001E0003B070CF4A9012FB7F894892F90E0FC018C
:1001F000EE0FFF1F8E0F9F1FFC01E853FE4F425072
:100200005109440F551F528341832FBFFF90EF9038
:10021000DF90CF90089590E0FC01EC55FF4F2491C2
:10022000FC01E057FF4F8491882399F090E0880FFC
:10023000991FFC01EA57FF4FA591B491FC01E458C6
:10024000FF4F859194918FB7F894EC91E22BEC934A
:100250008FBF08958F929F92AF92BF92CF92DF92FD
:10026000EF92FF928091EF0128E532E06901C81A10
:10027000D10887FDD394CC0CDD1CCC0CDD1C0D2CDF
:10028000000CEE08FF088091EE0128E830E04901FB
:10029000881A910887FD9394880C991C880C991CE6
:1002A000092C000CAA08BB088091ED018F3FC1F01A
:1002B00090E0FC01EE0FFF1F8E0F9F1FFC01E85323
:1002C000FE4F2181328143E0220F331F4A95E1F72F
:1002D00054E0369527955A95E1F72E5F3F4F02C0BF
:1002E00020E030E02F5F3F4FC901330FAA0BBB0B5B
:1002F0009C01AD01281939094A095B09A4EBB0E05A
:100300000E948906A7019601281939094A095B0943
:100310000E946A06C901FF90EF90DF90CF90BF90D6
:10032000AF909F908F9008950895CF92DF92EF92B3
:10033000FF920F931F93CF93DF936C01EB017B012F
:10034000E40EF51E00E010E0CE15DF0561F06991C6
:10035000D601ED91FC910190F081E02DC601099547
:10036000080F191FF1CFC801DF91CF911F910F9195
:10037000FF90EF90DF90CF9008950F931F93CF934E
:10038000DF93FC01A685B7858D01005C1F4FE80156
:100390008881998101968F739927AD014E5B5F4FDC
:1003A000EA012881398128173907D1F3E80128812A
:1003B0003981A20FB31F6C93A685B785A05CBF4F90
:1003C00011969C938E93A689B7892C9181E090E039
:1003D000078C02C0880F991F0A94E2F7822B8C9336
:1003E00081E081A30488F589E02D80818064808389
:1003F00081E090E0DF91CF911F910F910895FC0172
:1004000081A1882329F0A489B5898C9186FFFBCF2F
:1004100011A20895FC01A485B585FD01E05CFF4FA4
:10042000208131813296808191812817390779F0B6
:1004300080819181A80FB91F8C91208131812F5F1C
:100440003F4F2F7333273183208390E008958FEF40
:100450009FEF0895DC011C96ED91FC911D97DF0143
:10046000A05CBF4F2D913C91119712968D919C915C
:1004700011972817390739F08D919C91E80FF91FD2
:10048000808190E008958FEF9FEF0895FC0124850F
:100490003585F901E05CFF4F8081918132962081A2
:1004A0003181821B930B8F739927089586EA91E01F
:1004B0000C94460290E0FC01E859FF4F2491FC01A6
:1004C000EC55FF4F3491FC01E057FF4FE491EE23D0
:1004D00009F43CC0222339F1233091F038F4213063
:1004E000A9F0223001F584B58F7D12C0263091F03D
:1004F0002730A1F02430B9F4809180008F7D03C0B3
:10050000809180008F77809380000DC084B58F77B5
:1005100084BD09C08091B0008F7703C08091B00086
:100520008F7D8093B000F0E0EE0FFF1FE458FF4F87
:10053000A591B4919FB7F894611104C08C91309546
:10054000382302C0EC913E2B3C939FBF08953FB7E8
:10055000F8948091150190911601A0911701B09126
:10056000180126B5A89B05C02F3F19F00196A11DC3
:10057000B11D3FBFBA2FA92F982F8827820F911D39
:10058000A11DB11DBC01CD0142E0660F771F881F80
:10059000991F4A95D1F70895CF92DF92EF92FF927B
:1005A000CF93DF936B017C010E94A702EB01C11482
:1005B000D104E104F10479F00E94A7026C1B7D0BC9
:1005C000683E7340A0F381E0C81AD108E108F10841
:1005D000C851DC4FECCFDF91CF91FF90EF90DF90CF
:1005E000CF9008951F920F920FB60F9211242F9360
:1005F0003F934F935F936F937F938F939F93AF93AB
:10060000BF93EF93FF9380911D0187FF05C0109268
:100610008500109284001BC020911D01022E000C49
:10062000330B8091EC0190E02817390784F4809116
:100630001D01082E000C990BFC01EE0FFF1F8E0F01
:100640009F1FFC01E853FE4F808186FD15C08091FD
:100650001D018F5F80931D0120911D01022E000C52
:10066000330B8091EC0190E028173907C4F4809196
:100670001D018C3064F113C080911D01082E000C07
:10068000990BFC01EE0FFF1F8E0F9F1FFC01E8531B
:10069000FE4F808160E08F730E945A02D8CF809114
:1006A000840090918500049680349C4918F480E47D
:1006B0009CE905C0809184009091850004969093F8
:1006C0008900809388008FEF80931D013BC02091AB
:1006D00084003091850080911D01082E000C990B3B
:1006E000FC01EE0FFF1F8E0F9F1FFC01E853FE4F12
:1006F00081819281820F931F90938900809388005B
:1007000080911D01082E000C990BFC01EE0FFF1FBC
:100710008E0F9F1FFC01E853FE4F808186FF12C0A1
:1007200080911D01082E000C990BFC01EE0FFF1F9C
:100730008E0F9F1FFC01E853FE4F808161E08F7395
:100740000E945A02FF91EF91BF91AF919F918F91BB
:100750007F916F915F914F913F912F910F900FBEBD
:100760000F901F9018951F920F920FB60F921124A1
:100770002F933F938F939F93EF93FF9320915E016D
:1007800030915F01809160019091610128173907D4
:1007900031F48091C1008F7D8093C10014C0E0913D
:1007A0006001F0916101E25EFE4F20818091600165
:1007B0009091610101968F739927909361018093C5
:1007C00060012093C600FF91EF919F918F913F911F
:1007D0002F910F900FBE0F901F9018951F920F92A0
:1007E0000FB60F9211242F934F935F938F939F9384
:1007F000EF93FF938091C00082FD1CC02091C60042
:100800008091A2019091A3014091A4015091A50172
:1008100001968F7399274817590771F0E091A2014B
:10082000F091A301EE59FE4F20839093A301809392
:10083000A20102C08091C600FF91EF919F918F911C
:100840005F914F912F910F900FBE0F901F901895B1
:100850001F920F920FB60F9211242F933F938F93F5
:100860009F93AF93BF938091110190911201A0913A
:100870001301B09114013091100123E0230F2D37A3
:1008800020F40196A11DB11D05C026E8230F029694
:10089000A11DB11D209310018093110190931201AD
:1008A000A0931301B093140180911501909116014A
:1008B000A0911701B09118010196A11DB11D80935F
:1008C000150190931601A0931701B0931801BF91E1
:1008D000AF919F918F913F912F910F900FBE0F90ED
:1008E0001F9018951092A9011092A80188EE93E02C
:1008F000A0E0B0E08093AA019093AB01A093AC017B
:10090000B093AD0184E091E09093A7018093A6019C
:1009100082E691E09093B3018093B2018EE191E081
:100920009093B5018093B40185EC90E09093B7016A
:100930008093B60184EC90E09093B9018093B80164
:1009400080EC90E09093BB018093BA0181EC90E041
:100950009093BD018093BC0182EC90E09093BF0125
:100960008093BE0186EC90E09093C1018093C0011A
:1009700084E08093C20183E08093C30187E0809389
:10098000C40185E08093C50181E08093C601809118
:10099000EC018C30A0F491E0980F9093EC018093DF
:1009A000ED0190E0FC01EE0FFF1F8E0F9F1FFC0179
:1009B000E853FE4F88EB9BE09283818308958FEF8D
:1009C0008093ED010895789484B5826084BD84B5E8
:1009D000816084BD85B5826085BD85B5816085BD3A
:1009E00080916E00816080936E00109281008091F2
:1009F000810082608093810080918100816080937A
:100A00008100809180008160809380008091B1009E
:100A100084608093B1008091B00081608093B000C9
:100A200080917A00846080937A0080917A0082605D
:100A300080937A0080917A00816080937A0080911F
:100A40007A00806880937A001092C10083E00E944F
:100A50000B0184E00E940B0185E00E940B01809154
:100A6000ED018C3008F050C087E00E940B018091AE
:100A7000ED01E82FF0E09F01220F331FE20FF31F7B
:100A8000E853FE4F9081907C976090831092EE0126
:100A90001092EF016CE00E94CD069CE0899FB001AE
:100AA000112440E050E09B01240F351FF901EE0FA7
:100AB000FF1F2E0F3F1FF901E853FE4F908196FD57
:100AC00016C04F5F5F4F4C30510569F781110FC061
:100AD0001092800082E08093810010928500109235
:100AE0008400B19A80916F00826080936F00E091E2
:100AF000ED01F0E0CF01880F991FE80FF91FE853CF
:100B0000FE4F80818064808380EA90E00E948700AD
:100B1000E091BA01F091BB0181E090E09C0100906E
:100B2000C60102C0220F331F0A94E2F72083E0912E
:100B3000B601F091B7011082E091B801F091B901CE
:100B40002FEC20831092C701E091BC01F091BD0110
:100B500040819C010090C20102C0220F331F0A9401
:100B6000E2F7242B2083E091BC01F091BD0140818C
:100B70009C010090C30102C0220F331F0A94E2F7C8
:100B8000242B2083E091BC01F091BD0140819C01A8
:100B90000090C40102C0220F331F0A94E2F7242BF5
:100BA0002083E091BC01F091BD0120810090C5013E
:100BB00002C0880F991F0A94E2F7809582238083F0
:100BC00086EA91E00E944602181619061CF00E945F
:100BD0005602F6CF86EA91E00E940A029C01205359
:100BE0003109C197029720F430931C0120931B0117
:100BF000C9010397029720F430931A012093190139
:100C000080911B0190911C0182309105E1F460E01C
:100C100083E00E945A0261E084E00E945A0260E090
:100C200085E00E945A0268EE73E080E090E00E9446
:100C3000CC0260E083E00E945A0260E084E00E94FF
:100C40005A0261E00BC0019761F461E083E00E9409
:100C50005A0260E084E00E945A0260E085E00E944F
:100C60005A028091190190911A0183309105B1F4D3
:100C70000E942A01803A910509F0A9CFC0EAD0E08C
:100C8000CE010E9487006FE070E080E090E00E945B
:100C9000CC022197C534D10599F799CF049709F073
:100CA00096CF0E942A018634910509F090CFC6E4C0
:100CB000D0E0CE010E9487006FE070E080E090E01D
:100CC0000E94CC022196C13AD10599F780CFF894C1
:100CD0000C94DF06052E97FB1EF400940E948106FB
:100CE00057FD07D00E949C0607FC03D04EF40C94DD
:100CF000810650954095309521953F4F4F4F5F4F5E
:100D0000089590958095709561957F4F8F4F9F4F77
:100D100008950E94BE06A59F900DB49F900DA49FBC
:100D2000800D911D11240895B7FF0C9489060E942F
:100D30008906821B930B0895A1E21A2EAA1BBB1BE6
:100D4000FD010DC0AA1FBB1FEE1FFF1FA217B30797
:100D5000E407F50720F0A21BB30BE40BF50B661FAD
:100D6000771F881F991F1A9469F760957095809571
:100D700090959B01AC01BD01CF010895A29FB001E8
:100D8000B39FC001A39F700D811D1124911DB29FBF
:100D9000700D811D1124911D0895991B79E004C0E7
:100DA000991F961708F0961B881F7A95C9F78095AA
:100DB0000895EE0FFF1F0590F491E02D0994F8942B
:020DC000FFCF63
:100DC20000000000BD01950146020A022A02FF014D
:00000001FF
