:100000000C9462000C948A000C948A000C948A0070
:100010000C948A000C948A000C948A000C948A0038
:100020000C948A000C948A000C948A000C94E003CF
:100030000C948A000C948A000C948A000C948A0018
:100040000C9416050C948A000C94DC040C94A10406
:100050000C948A000C948A000C948A000C948A00F8
:100060000C948A000C948A000000000024002700F1
:100070002A0000000000250028002B0000000000DE
:1000800023002600290004040404040404040202DA
:100090000202020203030303030301020408102007
:1000A0004080010204081020010204081020000012
:1000B0000007000201000003040600000000000029
:1000C0000000600511241FBECFEFD8E0DEBFCDBF1A
:1000D00011E0A0E0B1E0ECEAF1E102C005900D9280
:1000E000A632B107D9F722E0A6E2B1E001C01D9225
:1000F000A034B207E1F710E0C2E6D0E004C02197D7
:10010000FE010E94CE08C136D107C9F70E94110630
:100110000C945C080C940000CF92DF92EF92FF9257
:10012000DC01A03282E0B8070CF03EC0B7FD06C08B
:10013000A53BB1052CF0A4EBB0E002C0A0E0B0E01C
:1001400080913E0228E830E06901C81AD10887FD95
:10015000D394CC0CDD1CCC0CDD1C0D2C000CEE085B
:10016000FF0880913F0228E532E0281B310987FD16
:100170003395220F331F220F331FA901330F660B54
:10018000770B9A01AB012C193D094E095F090E94BA
:10019000890824EB30E040E050E00E945F08C20E86
:1001A000D31EE41EF51ED60190913D029C3098F5B9
:1001B00080913E0248E850E0481B510987FD539565
:1001C000440F551F440F551FA417B5078CF080919D
:1001D0003F0228E532E0281B310987FD3395220FC5
:1001E000331F220F331FAD012A173B070CF4A9015F
:1001F0002FB7F894892F90E0FC01EE0FFF1F8E0FB0
:100200009F1FFC01EE51FE4F42505109440F551FF4
:10021000528341832FBFFF90EF90DF90CF900895DE
:100220008F929F92AF92BF92CF92DF92EF92FF9206
:1002300080913F0228E532E06901C81AD10887FDA4
:10024000D394CC0CDD1CCC0CDD1C0D2C000CEE086A
:10025000FF0880913E0228E830E04901881A9108A1
:1002600087FD9394880C991C880C991C092C000C10
:10027000AA08BB0880913D028F3FC1F090E0FC01CD
:10028000EE0FFF1F8E0F9F1FFC01EE51FE4F2181CD
:10029000328143E0220F331F4A95E1F754E036954F
:1002A00027955A95E1F72E5F3F4F02C020E030E0DE
:1002B0002F5F3F4FC901330FAA0BBB0B9C01AD0150
:1002C000281939094A095B09A4EBB0E00E947E08AD
:1002D000A7019601281939094A095B090E945F089C
:1002E000C901FF90EF90DF90CF90BF90AF909F90AB
:1002F0008F9008950F931F93CF93DF93FC01A685F2
:10030000B7858D01005C1F4FE801888199810196B6
:100310008F739927AD014E5B5F4FEA0128813981C8
:1003200028173907D1F3E80128813981A20FB31FBB
:100330006C93A685B785A05CBF4F11969C938E9356
:10034000A689B7892C9181E090E0078C02C0880FC4
:10035000991F0A94E2F7822B8C9381E081A3048891
:10036000F589E02D80818064808381E090E0DF91D9
:10037000CF911F910F910895FC0181A1882329F04D
:10038000A489B5898C9186FFFBCF11A20895FC0149
:10039000A485B585FD01E05CFF4F20813181329657
:1003A000808191812817390779F080819181A80F88
:1003B000B91F8C91208131812F5F3F4F2F733327DD
:1003C0003183208390E008958FEF9FEF0895DC0143
:1003D0001C96ED91FC911D97DF01A05CBF4F2D9104
:1003E0003C91119712968D919C911197281739077E
:1003F00039F08D919C91E80FF91F808190E008956C
:100400008FEF9FEF0895FC0124853585F901E05CAD
:10041000FF4F80819181329620813181821B930B25
:100420008F739927089580EC91E00C94030208954E
:10043000CF92DF92EF92FF920F931F93CF93DF93B0
:100440006C01EB017B01E40EF51E00E010E0CE151F
:10045000DF0561F06991D601ED91FC910190F08189
:10046000E02DC6010995080F191FF1CFC801DF91D2
:10047000CF911F910F91FF90EF90DF90CF90089553
:10048000833081F028F4813099F08230A1F0089512
:100490008630A9F08730B9F08430D1F480918000A3
:1004A0008F7D03C0809180008F77809380000895B6
:1004B00084B58F7702C084B58F7D84BD0895809107
:1004C000B0008F7703C08091B0008F7D8093B00023
:1004D0000895CF93DF93282F30E0F901E255FF4FC5
:1004E0008491F901E656FF4FD491F901EA57FF4F85
:1004F000C491CC2391F081110E944002EC2FF0E0D6
:10050000EE0FFF1FE458FF4FA591B491EC91ED233E
:1005100081E090E021F480E002C080E090E0DF9193
:10052000CF910895FC0181850E94690221E0892B09
:1005300009F420E0822F08951F93CF93DF93282F93
:1005400030E0F901E255FF4F8491F901E656FF4F83
:10055000D491F901EA57FF4FC491CC23C1F0162F73
:1005600081110E944002EC2FF0E0EE0FFF1FEE58C9
:10057000FF4FA591B4919FB7F894111104C08C91CD
:10058000D095D82302C0EC91DE2BDC939FBFDF9186
:10059000CF911F910895CF93DF9390E0FC01E65631
:1005A000FF4F2491FC01EA57FF4F8491882361F1AA
:1005B00090E0880F991FFC01E859FF4FC591D49135
:1005C000FC01EE58FF4FA591B491611109C09FB78E
:1005D000F8948881209582238883EC912E230BC088
:1005E000623061F49FB7F8948881322F309583236D
:1005F0008883EC912E2B2C939FBF06C08FB7F89465
:10060000E8812E2B28838FBFDF91CF910895862F0D
:10061000642F0C94CB023FB7F89480912B019091FA
:100620002C01A0912D01B0912E0126B5A89B05C0EB
:100630002F3F19F00196A11DB11D3FBFBA2FA92F61
:10064000982F8827820F911DA11DB11DBC01CD01DE
:1006500042E0660F771F881F991F4A95D1F70895CA
:10066000CF92DF92EF92FF92CF93DF930E940B0322
:10067000EB018FE0C82ED12CE12CF12C0E940B0352
:100680006C1B7D0B683E7340C8F381E0C81AD1082B
:10069000E108F108C851DC4FC114D104E104F104B0
:1006A00069F7DF91CF91FF90EF90DF90CF900895A1
:1006B0002FB7F8946091270170912801809129014A
:1006C00090912A012FBF0895CF93DF93EC016987A2
:1006D00018860E949202882319F088858360888793
:1006E0000E9458036A837B838C839D83DF91CF9123
:1006F0000895CF92DF92EF92FF920F931F93CF93C3
:10070000DF93EC0188858B7F8887CE010E9492025F
:10071000182F888586958170181759F00E94580304
:100720006A837B838C839D83988582E08927888771
:100730003AC00E945803CA80DB80EC80FD80AB0188
:10074000BC014C195D096E097F098E819F81A0E073
:10075000B0E0481759076A077B0728F18885817040
:10076000181709F10E9458036A837B838C839D8349
:10077000988581E08927846088870E9458030A85CC
:100780001B852C853D85DC01CB01801B910BA20BC9
:10079000B30B8E879F87A88BB98B0E9458036A87FB
:1007A0007B878C879D87888582FB882780F9DF91EE
:1007B000CF911F910F91FF90EF90DF90CF90089510
:1007C0001F920F920FB60F9211242F933F934F93C6
:1007D0005F936F937F938F939F93AF93BF93EF93A9
:1007E000FF938091370187FF05C01092850010921A
:1007F00084001BC020913701022E000C330B809126
:10080000060290E02817390784F480913701082EFA
:10081000000C990BFC01EE0FFF1F8E0F9F1FFC01B8
:10082000EE51FE4F808186FD15C0809137018F5FAC
:100830008093370120913701022E000C330B8091F9
:10084000060290E028173907C4F4809137018C30F4
:1008500064F113C080913701082E000C990BFC0144
:10086000EE0FFF1F8E0F9F1FFC01EE51FE4F808188
:1008700060E08F730E949C02D8CF80918400909199
:100880008500049680349C4918F480E49CE905C0F6
:1008900080918400909185000496909389008093C4
:1008A00088008FEF809337013BC020918400309106
:1008B000850080913701082E000C990BFC01EE0F8A
:1008C000FF1F8E0F9F1FFC01EE51FE4F8181928111
:1008D000820F931F90938900809388008091370145
:1008E000082E000C990BFC01EE0FFF1F8E0F9F1FAF
:1008F000FC01EE51FE4F808186FF12C080913701CE
:10090000082E000C990BFC01EE0FFF1F8E0F9F1F8E
:10091000FC01EE51FE4F808161E08F730E949C02CA
:10092000FF91EF91BF91AF919F918F917F916F91C7
:100930005F914F913F912F910F900FBE0F901F909D
:1009400018951F920F920FB60F9211242F933F9379
:100950008F939F93EF93FF932091780130917901CA
:1009600080917A0190917B012817390731F48091A9
:10097000C1008F7D8093C10014C0E0917A01F09195
:100980007B01E85CFE4F208180917A0190917B0190
:1009900001968F73992790937B0180937A0120931E
:1009A000C600FF91EF919F918F913F912F910F90F2
:1009B0000FBE0F901F9018951F920F920FB60F92B7
:1009C00011242F934F935F938F939F93EF93FF93F4
:1009D0008091C00082FD1CC02091C6008091BC01A6
:1009E0009091BD014091BE015091BF0101968F735E
:1009F00099274817590771F0E091BC01F091BD01AA
:100A0000E458FE4F20839093BD018093BC0102C047
:100A10008091C600FF91EF919F918F915F914F91CF
:100A20002F910F900FBE0F901F9018951F920F924D
:100A30000FB60F9211242F933F938F939F93AF93F1
:100A4000BF938091270190912801A0912901B09135
:100A50002A013091260123E0230F2D3720F401963F
:100A6000A11DB11D05C026E8230F0296A11DB11DD1
:100A7000209326018093270190932801A0932901B8
:100A8000B0932A0180912B0190912C01A0912D010E
:100A9000B0912E010196A11DB11D80932B01909361
:100AA0002C01A0932D01B0932E01BF91AF919F9186
:100AB0008F913F912F910F900FBE0F901F9018951F
:100AC0001092C3011092C20188EE93E0A0E0B0E062
:100AD0008093C4019093C501A093C601B093C70150
:100AE00084E091E09093C1018093C0018CE791E094
:100AF0009093CD018093CC0188E391E09093CF0156
:100B00008093CE0185EC90E09093D1018093D00149
:100B100084EC90E09093D3018093D20180EC90E03C
:100B20009093D5018093D40181EC90E09093D7010C
:100B30008093D60182EC90E09093D9018093D80104
:100B400086EC90E09093DB018093DA0184E080935F
:100B5000DC0183E08093DD0187E08093DE0185E0A6
:100B60008093DF0181E08093E001809106028C3068
:100B7000A0F491E0980F9093060280933D0290E0DC
:100B8000FC01EE0FFF1F8E0F9F1FFC01EE51FE4F69
:100B900088EB9BE09283818303C08FEF80933D02BB
:100BA00024E131E030932C0220932B0210922D028D
:100BB00010922E0210922F02109230028AE090E0E2
:100BC00090933202809331021092330210923402D9
:100BD00030931A022093190210921B0210921C02E9
:100BE00010921D0210921E029093200280931F0209
:100BF00010922102109222023093080220930702E1
:100C00001092090210920A0210920B0210920C022A
:100C100090930E0280930D0210920F021092100218
:100C20000895CF93DF93CDB7DEB7A1970FB6F894B1
:100C3000DEBF0FBECDBF789484B5826084BD84B51D
:100C4000816084BD85B5826085BD85B5816085BDC7
:100C500080916E00816080936E001092810080917F
:100C60008100826080938100809181008160809307
:100C70008100809180008160809380008091B1002C
:100C800084608093B1008091B00081608093B00057
:100C900080917A00846080937A0080917A008260EB
:100CA00080937A0080917A00816080937A008091AD
:100CB0007A00806880937A001092C10062E089E037
:100CC0000E94CB0262E08DE00E94CB0262E08CE0E9
:100CD0000E94CB0269E070E087E092E00E9464032A
:100CE00001E010E010930E0200930D026DE070E041
:100CF0008BE292E00E94640310933202009331026F
:100D00006CE070E089E192E00E946403109320029D
:100D100000931F0261E083E00E94CB0261E084E067
:100D20000E94CB0261E085E00E94CB0280913D02EF
:100D30008C3008F051C061E087E00E94CB028091C6
:100D40003D02E82FF0E09F01220F331FE20FF31F57
:100D5000EE51FE4F9081907C9760908310923E02FE
:100D600010923F026CE00E94C2089CE0899FB00193
:100D7000112440E050E09B01240F351FF901EE0FD4
:100D8000FF1F2E0F3F1FF901EE51FE4F908196FD80
:100D900016C04F5F5F4F4C30510569F781110FC08E
:100DA0001092800082E08093810010928500109262
:100DB0008400B19A80916F00826080936F00E0910F
:100DC0003D02F0E0CF01880F991FE80FF91FEE51A7
:100DD000FE4F80818064808380EA90E00E948C00D6
:100DE000E091D401F091D50181E090E09C01009068
:100DF000E00102C0220F331F0A94E2F72083E09142
:100E0000D001F091D1011082E091D201F091D30193
:100E10002BEC20831092E101E091D601F091D701F3
:100E200040819C010090DC0102C0220F331F0A9414
:100E3000E2F7242B2083E091D601F091D701408185
:100E40009C010090DD0102C0220F331F0A94E2F7DB
:100E5000242B2083E091D601F091D70140819C01A1
:100E60000090DE0102C0220F331F0A94E2F7242B08
:100E70002083E091D601F091D70120810090DF011D
:100E800002C0880F991F0A94E2F78095822380831D
:100E90008AE0482E512C612C712C87E092E00E9450
:100EA00079038BE292E00E94790389E192E00E944B
:100EB00079030E9458034B015C01809133019091AA
:100EC0003401A0913501B091360175016401C81A51
:100ED000D90AEA0AFB0A19A28E010F5D1F4FC7014A
:100EE000B601A30192010E9491088C2DEAE02E9F89
:100EF00080191124015011098A3014F4805D01C059
:100F0000895CF801808369017A01232B242B252B2E
:100F100031F70115110561F001900020E9F73197D3
:100F2000AF01401B510BB80180EC91E00E94180208
:100F30006DE080EC91E00E947A016AE080EC91E043
:100F40000E947A0160E083E00E949C0260E084E0FD
:100F50000E949C0261E085E00E949C028091320127
:100F6000882331F061E083E00E949C0260E018C0B9
:100F70008091330190913401A0913501B0913601F7
:100F8000881A990AAA0ABB0A60E0F9EE8F16F3E004
:100F90009F06A104B10448F483E00E949C0261E032
:100FA00084E00E949C0260E008C084E00E949C02F1
:100FB00060E083E00E949C0261E085E00E949C0268
:100FC00010910F02117083E00E946902892B21F4B5
:100FD00081E08093310102C010923101111121C0D2
:100FE00080913201882319F0109232011AC0809149
:100FF0003101882359F00E945803609333017093A4
:101000003401809335019093360108C04DE050E0E3
:1010100068E171E080EC91E00E94180281E0809329
:101020003201F0903001F11005C08091330280FD53
:101030001BC012C00E941001803A9105B1F700EA6E
:1010400010E0C8010E948C000E9430030150110979
:1010500005341105B1F7E9CFFF2019F010923001E6
:1010600003C081E080933001F0902F01F11005C0A2
:101070008091210280FF13C01CC00E9410018634A1
:101080009105B1F706E410E0C8010E948C000E94AF
:1010900030030F5F1F4F013A1105B1F7E9CFFF2071
:1010A00029F010922F011092300103C081E080934B
:1010B0002F010E941302F1CEF8940C94D408052E4F
:1010C00097FB1EF400940E94760857FD07D00E94FB
:1010D000910807FC03D04EF40C9476085095409587
:1010E000309521953F4F4F4F5F4F089590958095D4
:1010F000709561957F4F8F4F9F4F08950E94B30861
:10110000A59F900DB49F900DA49F800D911D11245B
:101110000895B7FF0C947E080E947E08821B930BF3
:101120000895A1E21A2EAA1BBB1BFD010DC0AA1F28
:10113000BB1FEE1FFF1FA217B307E407F50720F040
:10114000A21BB30BE40BF50B661F771F881F991FBB
:101150001A9469F760957095809590959B01AC0104
:10116000BD01CF010895A29FB001B39FC001A39F0D
:10117000700D811D1124911DB29F700D811D1124D0
:10118000911D0895991B79E004C0991F961708F0E6
:10119000961B881F7A95C9F780950895EE0FFF1F5B
:0C11A0000590F491E02D0994F894FFCF25
:1011AC00000000007A0118020302C701E701BC012C
:1011BC000000000092020703706173206465206FC9
:0611CC0072616E67650010
:00000001FF
